{
  "_format": "hh-sol-artifact-1",
  "contractName": "CarRentalPlatform",
  "sourceName": "contracts/CarRentalPlatform.sol",
  "abi": [
    {
      "inputs": [],
      "stateMutability": "nonpayable",
      "type": "constructor"
    },
    {
      "anonymous": false,
      "inputs": [
        {
          "indexed": true,
          "internalType": "address",
          "name": "walletAddress",
          "type": "address"
        },
        {
          "indexed": false,
          "internalType": "uint256",
          "name": "amount",
          "type": "uint256"
        }
      ],
      "name": "BalanceWithdrawn",
      "type": "event"
    },
    {
      "anonymous": false,
      "inputs": [
        {
          "indexed": true,
          "internalType": "uint256",
          "name": "id",
          "type": "uint256"
        },
        {
          "indexed": false,
          "internalType": "string",
          "name": "name",
          "type": "string"
        },
        {
          "indexed": false,
          "internalType": "string",
          "name": "imgUrl",
          "type": "string"
        },
        {
          "indexed": false,
          "internalType": "uint256",
          "name": "rentFee",
          "type": "uint256"
        },
        {
          "indexed": false,
          "internalType": "uint256",
          "name": "saleFee",
          "type": "uint256"
        }
      ],
      "name": "CarAdded",
      "type": "event"
    },
    {
      "anonymous": false,
      "inputs": [
        {
          "indexed": true,
          "internalType": "uint256",
          "name": "id",
          "type": "uint256"
        },
        {
          "indexed": false,
          "internalType": "string",
          "name": "name",
          "type": "string"
        },
        {
          "indexed": false,
          "internalType": "string",
          "name": "imgUrl",
          "type": "string"
        },
        {
          "indexed": false,
          "internalType": "uint256",
          "name": "rentFee",
          "type": "uint256"
        },
        {
          "indexed": false,
          "internalType": "uint256",
          "name": "saleFee",
          "type": "uint256"
        }
      ],
      "name": "CarMetadataEdited",
      "type": "event"
    },
    {
      "anonymous": false,
      "inputs": [
        {
          "indexed": true,
          "internalType": "uint256",
          "name": "id",
          "type": "uint256"
        },
        {
          "indexed": false,
          "internalType": "enum CarRentalPlatform.Status",
          "name": "status",
          "type": "uint8"
        }
      ],
      "name": "CarStatusEdited",
      "type": "event"
    },
    {
      "anonymous": false,
      "inputs": [
        {
          "indexed": true,
          "internalType": "address",
          "name": "walletAddress",
          "type": "address"
        },
        {
          "indexed": true,
          "internalType": "uint256",
          "name": "carId",
          "type": "uint256"
        }
      ],
      "name": "CheckIn",
      "type": "event"
    },
    {
      "anonymous": false,
      "inputs": [
        {
          "indexed": true,
          "internalType": "address",
          "name": "walletAddress",
          "type": "address"
        },
        {
          "indexed": true,
          "internalType": "uint256",
          "name": "carId",
          "type": "uint256"
        }
      ],
      "name": "CheckOut",
      "type": "event"
    },
    {
      "anonymous": false,
      "inputs": [
        {
          "indexed": true,
          "internalType": "address",
          "name": "walletAddress",
          "type": "address"
        },
        {
          "indexed": false,
          "internalType": "uint256",
          "name": "amount",
          "type": "uint256"
        }
      ],
      "name": "Deposit",
      "type": "event"
    },
    {
      "anonymous": false,
      "inputs": [
        {
          "indexed": true,
          "internalType": "address",
          "name": "walletAddress",
          "type": "address"
        },
        {
          "indexed": false,
          "internalType": "uint256",
          "name": "amount",
          "type": "uint256"
        }
      ],
      "name": "PaymentMade",
      "type": "event"
    },
    {
      "anonymous": false,
      "inputs": [
        {
          "indexed": true,
          "internalType": "address",
          "name": "walletAddress",
          "type": "address"
        },
        {
          "indexed": false,
          "internalType": "string",
          "name": "name",
          "type": "string"
        },
        {
          "indexed": false,
          "internalType": "string",
          "name": "lastname",
          "type": "string"
        }
      ],
      "name": "UserAdded",
      "type": "event"
    },
    {
      "inputs": [
        {
          "internalType": "string",
          "name": "name",
          "type": "string"
        },
        {
          "internalType": "string",
          "name": "url",
          "type": "string"
        },
        {
          "internalType": "uint256",
          "name": "rent",
          "type": "uint256"
        },
        {
          "internalType": "uint256",
          "name": "sale",
          "type": "uint256"
        }
      ],
      "name": "addCar",
      "outputs": [],
      "stateMutability": "nonpayable",
      "type": "function"
    },
    {
      "inputs": [
        {
          "internalType": "string",
          "name": "name",
          "type": "string"
        },
        {
          "internalType": "string",
          "name": "lastname",
          "type": "string"
        }
      ],
      "name": "addUser",
      "outputs": [],
      "stateMutability": "nonpayable",
      "type": "function"
    },
    {
      "inputs": [],
      "name": "checkIn",
      "outputs": [],
      "stateMutability": "nonpayable",
      "type": "function"
    },
    {
      "inputs": [
        {
          "internalType": "uint256",
          "name": "id",
          "type": "uint256"
        }
      ],
      "name": "checkOut",
      "outputs": [],
      "stateMutability": "nonpayable",
      "type": "function"
    },
    {
      "inputs": [],
      "name": "deposit",
      "outputs": [],
      "stateMutability": "payable",
      "type": "function"
    },
    {
      "inputs": [
        {
          "internalType": "uint256",
          "name": "id",
          "type": "uint256"
        },
        {
          "internalType": "string",
          "name": "name",
          "type": "string"
        },
        {
          "internalType": "string",
          "name": "imgUrl",
          "type": "string"
        },
        {
          "internalType": "uint256",
          "name": "rentFee",
          "type": "uint256"
        },
        {
          "internalType": "uint256",
          "name": "saleFee",
          "type": "uint256"
        }
      ],
      "name": "editCarMetadata",
      "outputs": [],
      "stateMutability": "nonpayable",
      "type": "function"
    },
    {
      "inputs": [
        {
          "internalType": "uint256",
          "name": "id",
          "type": "uint256"
        },
        {
          "internalType": "enum CarRentalPlatform.Status",
          "name": "status",
          "type": "uint8"
        }
      ],
      "name": "editCarStatus",
      "outputs": [],
      "stateMutability": "nonpayable",
      "type": "function"
    },
    {
      "inputs": [
        {
          "internalType": "uint256",
          "name": "id",
          "type": "uint256"
        }
      ],
      "name": "getCar",
      "outputs": [
        {
          "components": [
            {
              "internalType": "uint256",
              "name": "id",
              "type": "uint256"
            },
            {
              "internalType": "string",
              "name": "name",
              "type": "string"
            },
            {
              "internalType": "string",
              "name": "imgUrl",
              "type": "string"
            },
            {
              "internalType": "enum CarRentalPlatform.Status",
              "name": "status",
              "type": "uint8"
            },
            {
              "internalType": "uint256",
              "name": "rentFee",
              "type": "uint256"
            },
            {
              "internalType": "uint256",
              "name": "saleFee",
              "type": "uint256"
            }
          ],
          "internalType": "struct CarRentalPlatform.Car",
          "name": "",
          "type": "tuple"
        }
      ],
      "stateMutability": "view",
      "type": "function"
    },
    {
      "inputs": [
        {
          "internalType": "enum CarRentalPlatform.Status",
          "name": "_status",
          "type": "uint8"
        }
      ],
      "name": "getCarsByStatus",
      "outputs": [
        {
          "components": [
            {
              "internalType": "uint256",
              "name": "id",
              "type": "uint256"
            },
            {
              "internalType": "string",
              "name": "name",
              "type": "string"
            },
            {
              "internalType": "string",
              "name": "imgUrl",
              "type": "string"
            },
            {
              "internalType": "enum CarRentalPlatform.Status",
              "name": "status",
              "type": "uint8"
            },
            {
              "internalType": "uint256",
              "name": "rentFee",
              "type": "uint256"
            },
            {
              "internalType": "uint256",
              "name": "saleFee",
              "type": "uint256"
            }
          ],
          "internalType": "struct CarRentalPlatform.Car[]",
          "name": "",
          "type": "tuple[]"
        }
      ],
      "stateMutability": "view",
      "type": "function"
    },
    {
      "inputs": [],
      "name": "getContractBalance",
      "outputs": [
        {
          "internalType": "uint256",
          "name": "",
          "type": "uint256"
        }
      ],
      "stateMutability": "view",
      "type": "function"
    },
    {
      "inputs": [],
      "name": "getCurrentCount",
      "outputs": [
        {
          "internalType": "uint256",
          "name": "",
          "type": "uint256"
        }
      ],
      "stateMutability": "view",
      "type": "function"
    },
    {
      "inputs": [],
      "name": "getOwner",
      "outputs": [
        {
          "internalType": "address",
          "name": "",
          "type": "address"
        }
      ],
      "stateMutability": "view",
      "type": "function"
    },
    {
      "inputs": [],
      "name": "getTotalPayments",
      "outputs": [
        {
          "internalType": "uint256",
          "name": "",
          "type": "uint256"
        }
      ],
      "stateMutability": "view",
      "type": "function"
    },
    {
      "inputs": [
        {
          "internalType": "address",
          "name": "walletAddress",
          "type": "address"
        }
      ],
      "name": "getUser",
      "outputs": [
        {
          "components": [
            {
              "internalType": "address",
              "name": "walletAddress",
              "type": "address"
            },
            {
              "internalType": "string",
              "name": "name",
              "type": "string"
            },
            {
              "internalType": "string",
              "name": "lastname",
              "type": "string"
            },
            {
              "internalType": "uint256",
              "name": "rentedCarId",
              "type": "uint256"
            },
            {
              "internalType": "uint256",
              "name": "balance",
              "type": "uint256"
            },
            {
              "internalType": "uint256",
              "name": "debt",
              "type": "uint256"
            },
            {
              "internalType": "uint256",
              "name": "start",
              "type": "uint256"
            }
          ],
          "internalType": "struct CarRentalPlatform.User",
          "name": "",
          "type": "tuple"
        }
      ],
      "stateMutability": "view",
      "type": "function"
    },
    {
      "inputs": [],
      "name": "makePayment",
      "outputs": [],
      "stateMutability": "nonpayable",
      "type": "function"
    },
    {
      "inputs": [
        {
          "internalType": "address",
          "name": "_newOwner",
          "type": "address"
        }
      ],
      "name": "setOwner",
      "outputs": [],
      "stateMutability": "nonpayable",
      "type": "function"
    },
    {
      "inputs": [
        {
          "internalType": "uint256",
          "name": "amount",
          "type": "uint256"
        }
      ],
      "name": "withdrawBalance",
      "outputs": [],
      "stateMutability": "nonpayable",
      "type": "function"
    },
    {
      "inputs": [
        {
          "internalType": "uint256",
          "name": "amount",
          "type": "uint256"
        }
      ],
      "name": "withdrawOwnerBalance",
      "outputs": [],
      "stateMutability": "nonpayable",
      "type": "function"
    }
  ],
  "bytecode": "0x608060405234801561001057600080fd5b5060016000908155600280546001600160a01b0319163317905560035561212a8061003c6000396000f3fe6080604052600436106101095760003560e01c8063708f29a611610095578063d0e30db011610064578063d0e30db0146102d5578063d8546f49146102dd578063d8d79700146102fd578063da76d5cd14610312578063dd51babf1461033257600080fd5b8063708f29a61461024b578063893d20e8146102605780639a43da7314610288578063ba38ccf6146102a857600080fd5b80633c69c657116100dc5780633c69c657146101855780634865bed2146101a55780635e8be190146101c55780636f77926b146101fb5780636f9fb98a1461022857600080fd5b8063079eaf341461010e57806313af403514610130578063183ff085146101505780631bd2eeee14610165575b600080fd5b34801561011a57600080fd5b5061012e610129366004611ac6565b610347565b005b34801561013c57600080fd5b5061012e61014b366004611a7b565b610529565b34801561015c57600080fd5b5061012e610575565b34801561017157600080fd5b5061012e610180366004611bb0565b6106c4565b34801561019157600080fd5b5061012e6101a0366004611bb0565b6108a8565b3480156101b157600080fd5b5061012e6101c0366004611b32565b6109d8565b3480156101d157600080fd5b506101e56101e0366004611bb0565b610ba6565b6040516101f29190611f42565b60405180910390f35b34801561020757600080fd5b5061021b610216366004611a7b565b610d97565b6040516101f29190611f55565b34801561023457600080fd5b5061023d610f8b565b6040519081526020016101f2565b34801561025757600080fd5b5061023d610fbd565b34801561026c57600080fd5b506002546040516001600160a01b0390911681526020016101f2565b34801561029457600080fd5b5061012e6102a3366004611bc9565b610ff1565b3480156102b457600080fd5b506102c86102c3366004611aab565b6110e5565b6040516101f29190611df9565b61012e6113dc565b3480156102e957600080fd5b5061012e6102f8366004611bf5565b61145f565b34801561030957600080fd5b5061012e611590565b34801561031e57600080fd5b5061012e61032d366004611bb0565b6116da565b34801561033e57600080fd5b5061023d61181c565b6103503361182c565b156103985760405162461bcd60e51b81526020600482015260136024820152725573657220616c72656164792065786973747360681b60448201526064015b60405180910390fd5b6040518060e00160405280336001600160a01b0316815260200185858080601f016020809104026020016040519081016040528093929190818152602001838380828437600092019190915250505090825250604080516020601f86018190048102820181019092528481529181019190859085908190840183828082843760009201829052509385525050506020808301829052604080840183905260608401839052608090930182905233825260048152919020825181546001600160a01b0319166001600160a01b039091161781558282015180519192610484926001850192909101906118ca565b50604082015180516104a09160028401916020909101906118ca565b5060608201516003820155608082015160048083019190915560a0830151600583015560c090920151600690910155336000818152602092909252604091829020915190917f8eab1db142a914aff8b515eedb9177bd7effaef6d714c41e30bdf152067786079161051b916001810191600290910190611e69565b60405180910390a250505050565b6002546001600160a01b031633146105535760405162461bcd60e51b815260040161038f90611ed0565b600280546001600160a01b0319166001600160a01b0392909216919091179055565b61057e3361182c565b61059a5760405162461bcd60e51b815260040161038f90611f15565b33600090815260046020526040902060030154806105fa5760405162461bcd60e51b815260206004820152601960248201527f5573657220686173206e6f742072656e74656420612063617200000000000000604482015260640161038f565b33600090815260046020526040812060060154610617904261202f565b600083815260056020526040902060040154909150610636828261184c565b3360009081526004602052604081206005018054909190610658908490611fd6565b9091555050336000818152600460209081526040808320600380820185905560069091018490558784526005909252808320909101805460ff19166002179055518592917fa864a8b988e604bb05d6ce75d53efabb5620c45b15380b7bd0c51dcfa71dda0391a3505050565b6106cd3361182c565b6107105760405162461bcd60e51b81526020600482015260146024820152735573657220646f6573206e6f742065786973742160601b604482015260640161038f565b600260008281526005602052604090206003015460ff166002811115610738576107386120b2565b146107855760405162461bcd60e51b815260206004820152601c60248201527f436172206973206e6f7420417661696c61626c6520666f722075736500000000604482015260640161038f565b33600090815260046020526040902060030154156107e55760405162461bcd60e51b815260206004820152601d60248201527f557365722068617320616c72656164792072656e746564206120636172000000604482015260640161038f565b33600090815260046020526040902060050154156108455760405162461bcd60e51b815260206004820152601d60248201527f557365722068617320616e206f75747374616e64696e67206465627421000000604482015260640161038f565b33600081815260046020908152604080832042600682015560039081018690558584526005909252808320909101805460ff19166001179055518392917ff65ce03794824579bcd95d8c6743ffc10c4a5e7405fb3876c1abf81453105c4291a350565b6002546001600160a01b031633146108d25760405162461bcd60e51b815260040161038f90611ed0565b8060035410156109365760405162461bcd60e51b815260206004820152602960248201527f496e73756666696369656e7420636f6e74726163742062616c616e636520746f60448201526820776974686472617760b81b606482015260840161038f565b6002546040516000916001600160a01b03169083908381818185875af1925050503d8060008114610983576040519150601f19603f3d011682016040523d82523d6000602084013e610988565b606091505b50509050806109cb5760405162461bcd60e51b815260206004820152600f60248201526e151c985b9cd9995c8819985a5b1959608a1b604482015260640161038f565b5060038054919091039055565b6002546001600160a01b03163314610a025760405162461bcd60e51b815260040161038f90611ed0565b610a10600180546001019055565b6000610a1b60015490565b90506040518060c0016040528082815260200188888080601f016020809104026020016040519081016040528093929190818152602001838380828437600092019190915250505090825250604080516020601f890181900481028201810190925287815291810191908890889081908401838280828437600092019190915250505090825250602001600281526020808201869052604091820185905260008481526005825291909120825181558282015180519192610ae4926001850192909101906118ca565b5060408201518051610b009160028401916020909101906118ca565b50606082015160038201805460ff19166001836002811115610b2457610b246120b2565b0217905550608082015160048083019190915560a090920151600591820155600083815260208290526040908190209283015491830154905184937f1d26cfb076fd58c1fa5695bb34e5556995a0aa34ecc601438f9957d6a71439a393610b95936001830193600290930192611e97565b60405180910390a250505050505050565b610bae61194e565b600082815260056020526040902054610bfe5760405162461bcd60e51b815260206004820152601260248201527110d85c88191bd95cc81b9bdd08195e1a5cdd60721b604482015260640161038f565b600560008381526020019081526020016000206040518060c001604052908160008201548152602001600182018054610c3690612046565b80601f0160208091040260200160405190810160405280929190818152602001828054610c6290612046565b8015610caf5780601f10610c8457610100808354040283529160200191610caf565b820191906000526020600020905b815481529060010190602001808311610c9257829003601f168201915b50505050508152602001600282018054610cc890612046565b80601f0160208091040260200160405190810160405280929190818152602001828054610cf490612046565b8015610d415780601f10610d1657610100808354040283529160200191610d41565b820191906000526020600020905b815481529060010190602001808311610d2457829003601f168201915b5050509183525050600382015460209091019060ff166002811115610d6857610d686120b2565b6002811115610d7957610d796120b2565b81526004820154602082015260059091015460409091015292915050565b610de06040518060e0016040528060006001600160a01b031681526020016060815260200160608152602001600081526020016000815260200160008152602001600081525090565b610de98261182c565b610e055760405162461bcd60e51b815260040161038f90611f15565b6001600160a01b03808316600090815260046020908152604091829020825160e081019093528054909316825260018301805492939291840191610e4890612046565b80601f0160208091040260200160405190810160405280929190818152602001828054610e7490612046565b8015610ec15780601f10610e9657610100808354040283529160200191610ec1565b820191906000526020600020905b815481529060010190602001808311610ea457829003601f168201915b50505050508152602001600282018054610eda90612046565b80601f0160208091040260200160405190810160405280929190818152602001828054610f0690612046565b8015610f535780601f10610f2857610100808354040283529160200191610f53565b820191906000526020600020905b815481529060010190602001808311610f3657829003601f168201915b505050505081526020016003820154815260200160048201548152602001600582015481526020016006820154815250509050919050565b6002546000906001600160a01b03163314610fb85760405162461bcd60e51b815260040161038f90611ed0565b504790565b6002546000906001600160a01b03163314610fea5760405162461bcd60e51b815260040161038f90611ed0565b5060035490565b6002546001600160a01b0316331461101b5760405162461bcd60e51b815260040161038f90611ed0565b6000828152600560205260409020546110765760405162461bcd60e51b815260206004820181905260248201527f436172207769746820676976656e20494420646f6573206e6f74206578697374604482015260640161038f565b6000828152600560205260409020600301805482919060ff191660018360028111156110a4576110a46120b2565b0217905550817fa2038badc9c4004a10f632052c54b0011bb307c2cadc65f22071f61ffd106633826040516110d99190611e5b565b60405180910390a25050565b60606000806110f360015490565b905060015b81811161115d57846002811115611111576111116120b2565b60008281526005602052604090206003015460ff166002811115611137576111376120b2565b141561114b578261114781612081565b9350505b8061115581612081565b9150506110f8565b5060008267ffffffffffffffff811115611179576111796120de565b6040519080825280602002602001820160405280156111b257816020015b61119f61194e565b8152602001906001900390816111975790505b5060009350905060015b828110156113d3578560028111156111d6576111d66120b2565b60008281526005602052604090206003015460ff1660028111156111fc576111fc6120b2565b14156113c157600560008281526020019081526020016000206040518060c00160405290816000820154815260200160018201805461123a90612046565b80601f016020809104026020016040519081016040528092919081815260200182805461126690612046565b80156112b35780601f10611288576101008083540402835291602001916112b3565b820191906000526020600020905b81548152906001019060200180831161129657829003601f168201915b505050505081526020016002820180546112cc90612046565b80601f01602080910402602001604051908101604052809291908181526020018280546112f890612046565b80156113455780601f1061131a57610100808354040283529160200191611345565b820191906000526020600020905b81548152906001019060200180831161132857829003601f168201915b5050509183525050600382015460209091019060ff16600281111561136c5761136c6120b2565b600281111561137d5761137d6120b2565b8152602001600482015481526020016005820154815250508285815181106113a7576113a76120c8565b602002602001018190525083806113bd90612081565b9450505b806113cb81612081565b9150506111bc565b50949350505050565b6113e53361182c565b6114015760405162461bcd60e51b815260040161038f90611f15565b3360009081526004602081905260408220018054349290611423908490611fd6565b909155505060405134815233907fe1fffcc4923d04b559f4d29a8bfc6cda04eb5b0d3c460751c2402c5c5cc9109c9060200160405180910390a2565b6002546001600160a01b031633146114895760405162461bcd60e51b815260040161038f90611ed0565b6000878152600560205260409020546114e45760405162461bcd60e51b815260206004820181905260248201527f436172207769746820676976656e20494420646f6573206e6f74206578697374604482015260640161038f565b6000878152600560205260409020851561150857611506600182018888611995565b505b831561151e5761151c600282018686611995565b505b821561152c57600481018390555b811561153a57600581018290555b877f10e3e3a462a9f4c167783d47719e646c87b1a773b083fb5eef04a076e887079c82600101836002018460040154856005015460405161157e9493929190611e97565b60405180910390a25050505050505050565b6115993361182c565b6115b55760405162461bcd60e51b815260040161038f90611f15565b3360009081526004602081905260409091206005810154910154816116135760405162461bcd60e51b81526020600482015260146024820152735573657220686173206465627420746f2070617960601b604482015260640161038f565b818110156116635760405162461bcd60e51b815260206004820152601d60248201527f557365722068617320696e73756666696369656e742062616c616e6365000000604482015260640161038f565b336000908152600460208190526040822001805484900390556003805484929061168e908490611fd6565b90915550503360008181526004602052604080822060050191909155517f3a2d0e41c506b136330c6e5e0295ccbf0966daece99bfe7c89020cc01dbfb8d6906110d99085815260200190565b6116e2611870565b6116eb3361182c565b6117075760405162461bcd60e51b815260040161038f90611f15565b33600090815260046020819052604090912001548181101561176b5760405162461bcd60e51b815260206004820181905260248201527f496e73756666696369656e742062616c616e636520746f207769746864726177604482015260640161038f565b336000818152600460208190526040808320909101805486900390555190919084908381818185875af1925050503d80600081146117c5576040519150601f19603f3d011682016040523d82523d6000602084013e6117ca565b606091505b505090508061180d5760405162461bcd60e51b815260206004820152600f60248201526e151c985b9cd9995c8819985a5b1959608a1b604482015260640161038f565b50506118196001600055565b50565b600061182760015490565b905090565b6001600160a01b0390811660009081526004602052604090205416151590565b60008061185a603c85611fee565b90506118668382612010565b9150505b92915050565b600260005414156118c35760405162461bcd60e51b815260206004820152601f60248201527f5265656e7472616e637947756172643a207265656e7472616e742063616c6c00604482015260640161038f565b6002600055565b8280546118d690612046565b90600052602060002090601f0160209004810192826118f8576000855561193e565b82601f1061191157805160ff191683800117855561193e565b8280016001018555821561193e579182015b8281111561193e578251825591602001919060010190611923565b5061194a929150611a09565b5090565b6040518060c0016040528060008152602001606081526020016060815260200160006002811115611981576119816120b2565b815260200160008152602001600081525090565b8280546119a190612046565b90600052602060002090601f0160209004810192826119c3576000855561193e565b82601f106119dc5782800160ff1982351617855561193e565b8280016001018555821561193e579182015b8281111561193e5782358255916020019190600101906119ee565b5b8082111561194a5760008155600101611a0a565b803560038110611a2d57600080fd5b919050565b60008083601f840112611a4457600080fd5b50813567ffffffffffffffff811115611a5c57600080fd5b602083019150836020828501011115611a7457600080fd5b9250929050565b600060208284031215611a8d57600080fd5b81356001600160a01b0381168114611aa457600080fd5b9392505050565b600060208284031215611abd57600080fd5b611aa482611a1e565b60008060008060408587031215611adc57600080fd5b843567ffffffffffffffff80821115611af457600080fd5b611b0088838901611a32565b90965094506020870135915080821115611b1957600080fd5b50611b2687828801611a32565b95989497509550505050565b60008060008060008060808789031215611b4b57600080fd5b863567ffffffffffffffff80821115611b6357600080fd5b611b6f8a838b01611a32565b90985096506020890135915080821115611b8857600080fd5b50611b9589828a01611a32565b979a9699509760408101359660609091013595509350505050565b600060208284031215611bc257600080fd5b5035919050565b60008060408385031215611bdc57600080fd5b82359150611bec60208401611a1e565b90509250929050565b600080600080600080600060a0888a031215611c1057600080fd5b87359650602088013567ffffffffffffffff80821115611c2f57600080fd5b611c3b8b838c01611a32565b909850965060408a0135915080821115611c5457600080fd5b50611c618a828b01611a32565b989b979a5095989597966060870135966080013595509350505050565b60038110611c9c57634e487b7160e01b600052602160045260246000fd5b9052565b6000815180845260005b81811015611cc657602081850181015186830182015201611caa565b81811115611cd8576000602083870101525b50601f01601f19169290920160200192915050565b8054600090600181811c9080831680611d0757607f831692505b6020808410821415611d2957634e487b7160e01b600052602260045260246000fd5b83885260208801828015611d445760018114611d5557611d80565b60ff19871682528282019750611d80565b60008981526020902060005b87811015611d7a57815484820152908601908401611d61565b83019850505b5050505050505092915050565b805182526000602082015160c06020850152611dac60c0850182611ca0565b905060408301518482036040860152611dc58282611ca0565b9150506060830151611dda6060860182611c7e565b506080830151608085015260a083015160a08501528091505092915050565b6000602080830181845280855180835260408601915060408160051b870101925083870160005b82811015611e4e57603f19888603018452611e3c858351611d8d565b94509285019290850190600101611e20565b5092979650505050505050565b6020810161186a8284611c7e565b604081526000611e7c6040830185611ced565b8281036020840152611e8e8185611ced565b95945050505050565b608081526000611eaa6080830187611ced565b8281036020840152611ebc8187611ced565b604084019590955250506060015292915050565b60208082526025908201527f4f6e6c7920746865206f776e65722063616e2063616c6c20746869732066756e60408201526431ba34b7b760d91b606082015260800190565b602080825260139082015272155cd95c88191bd95cc81b9bdd08195e1a5cdd606a1b604082015260600190565b602081526000611aa46020830184611d8d565b602080825282516001600160a01b03168282015282015160e06040830152600090611f84610100840182611ca0565b90506040840151601f19848303016060850152611fa18282611ca0565b91505060608401516080840152608084015160a084015260a084015160c084015260c084015160e08401528091505092915050565b60008219821115611fe957611fe961209c565b500190565b60008261200b57634e487b7160e01b600052601260045260246000fd5b500490565b600081600019048311821515161561202a5761202a61209c565b500290565b6000828210156120415761204161209c565b500390565b600181811c9082168061205a57607f821691505b6020821081141561207b57634e487b7160e01b600052602260045260246000fd5b50919050565b60006000198214156120955761209561209c565b5060010190565b634e487b7160e01b600052601160045260246000fd5b634e487b7160e01b600052602160045260246000fd5b634e487b7160e01b600052603260045260246000fd5b634e487b7160e01b600052604160045260246000fdfea2646970667358221220df89307f603716c3b9ef2c178eb0a1a027f8a4c8bb5c1dbe7958f6f2767bcd6664736f6c63430008070033",
  "linkReferences": {},
  "deployedLinkReferences": {}
}